export const forcedUtxos = [
  {
    txid: 'c032d84d804b7ddec9ae5638c98307701115389ce160c922bfee10f7846b33c6',
    vout: 0,
    value: '0.0001',
    height: '2004276',
    confirmations: 756,
    satoshis: 10000,
    lockTime: undefined,
    coinbase: false,
    txHex: '020000000221ae8931388ee24aa51f12dd6be49a06977da90a05604a1d66db0bc3a8816470000000006a473044022063537a13030de94b4f53454ac48b26f456dc18cb58689d7916d79013dab4439602204674b9270433a284ac17a1a9e5ec49162c7c50ceea8b2386ba5d000e1c0c1ca901210378d0f8d67207e8aec2b0276ccd8e84191ab3b33e4669bf9c944e164acb36e808fdffffff76ba0e747b7ad8d37b41fb00e947d767be8ac4e4af8510090dbd81e0489e7eef000000006a473044022037a04078b584b9de709e5c749aef3b7f5c809e3656a2de1749d3298041d8504502203d7ce41ea81ea5bea8915a6e94d8f09f76e037a3cb01ee52f2c950e2cf50732201210378d0f8d67207e8aec2b0276ccd8e84191ab3b33e4669bf9c944e164acb36e808fdffffff0210270000000000001976a914fb4e9a7eef2dcb8b5fd00b6c31286eaa2247b03288ac2c220200000000001976a914940c066308048089818b06b2d04bb36b2acb88e988ac00000000',
    scriptPubKeyHex: '76a914fb4e9a7eef2dcb8b5fd00b6c31286eaa2247b03288ac',
    address: 'n4Rk4fqGfY9HqZ41K6KNo44eG3MXA4YPMg',
    spent: false,
    signer: 1
  },
  {
    txid: '8e523bafc53262f89306793ffe63d91b9dcf58d8ad44ab5e3a64dee9e6566a18',
    vout: 0,
    value: '0.0001',
    height: '2004276',
    confirmations: 756,
    satoshis: 10000,
    lockTime: undefined,
    coinbase: false,
    txHex: '020000000213c0af0f6b9bf029dd445ea8447a3ec652a1f08faeb1f70f50ba2b24e0393c66000000006a47304402207e050931d823359ec2066cfc3d89fa2168da7d2a3bac52b55fbc2bf0b207afcb022026458bb4ee317a1cba91a815f43722a15c089b74f7de1ba99bc6734a3570a30001210378d0f8d67207e8aec2b0276ccd8e84191ab3b33e4669bf9c944e164acb36e808fdffffff282b6e6b7c0e29dd7751df4e987049d66fbaed1aaad76538f36cdd21350a4942000000006a47304402203637249e6a1fa87b25c59d5c10d2325bbc7dd10bd1215d5f70f716269de85bdc02206f66b91382712f642f03e11e724e1b98395b44db37b9199e51ad6f47f7dec25601210378d0f8d67207e8aec2b0276ccd8e84191ab3b33e4669bf9c944e164acb36e808fdffffff02102700000000000017a91443b1c3d2b4079f77a08c603b472e822ed7bb6bf4875c7f0100000000001976a914940c066308048089818b06b2d04bb36b2acb88e988ac00000000',
    scriptPubKeyHex: 'a91443b1c3d2b4079f77a08c603b472e822ed7bb6bf487',
    address: '2MyRADTg8pPEReSLL6HGYVAAQwixJ278dki',
    spent: false,
    signer: 1
  },
  {
    txid: '258e25aa7eacd76877efd5c36bff431298b16c6550fe305d33023438a1c79770',
    vout: 0,
    value: '0.0001',
    height: '2004276',
    confirmations: 756,
    satoshis: 10000,
    lockTime: undefined,
    coinbase: false,
    txHex: '0200000001186a56e6e9de643a5eab44add858cf9d1bd963fe3f790693f86232c5af3b528e010000006a473044022043e6d7b439a3c35ceffe94f32196b71ed4897a4846516bd98be490d997c1b48c022043ee889d2bab27789bd410679ec2da3ba5c20446864ab28a523179545210eb8e01210378d0f8d67207e8aec2b0276ccd8e84191ab3b33e4669bf9c944e164acb36e808fdffffff021027000000000000160014fb4e9a7eef2dcb8b5fd00b6c31286eaa2247b032f1530100000000001976a914940c066308048089818b06b2d04bb36b2acb88e988ac00000000',
    scriptPubKeyHex: '0014fb4e9a7eef2dcb8b5fd00b6c31286eaa2247b032',
    address: 'tb1qld8f5lh09h9ckh7spdkrz2rw4g3y0vpj0s5dla',
    spent: false,
    signer: 1
  },
  {
    txid: '8c3433c0d9ab951a94adb2d25a31be5c8d5fd13868f568e7ca6b5923eba55496',
    vout: 0,
    value: '0.0001',
    height: '2004276',
    confirmations: 756,
    satoshis: 10000,
    lockTime: undefined,
    coinbase: false,
    txHex: '02000000010bc6e8f2aa9681961fe1c7d1733e0ee3326436838f81057a50bd63abb961549b060000006b483045022100de93823b255e6b11edbab417159adcbe4b3f195bfa7166b0a35a92dec39bf03d02202df5634242238427a1ab9e5105020b35a1bd2863a92011912f1dc6c8f062a1b701210378d0f8d67207e8aec2b0276ccd8e84191ab3b33e4669bf9c944e164acb36e808fdffffff0210270000000000001976a914130aa978a5d019eb2d495c3d0b000915206f60da88ac2c3c0100000000001976a914940c066308048089818b06b2d04bb36b2acb88e988ac00000000',
    scriptPubKeyHex: '76a914130aa978a5d019eb2d495c3d0b000915206f60da88ac',
    address: 'mhFduWNyuHrWYwPhyGZNnuDYtPVgCshGg6',
    spent: false,
    signer: 2
  },
  {
    txid: '42c113779bdf01ba6cd2866213bddbe74187a28f53abbf2a796b8f18523fb8fa',
    vout: 0,
    value: '0.0001',
    height: '2004276',
    confirmations: 756,
    satoshis: 10000,
    lockTime: undefined,
    coinbase: false,
    txHex: '0200000002ad3541e94427ce004b50a94acc8707a9073450a65d750572323445d466bb402a000000006b483045022100f48bf0c74dc36f540c1bb577f34f1b2cf61d0683cf203c3d591518d25e1a4da902206856b2836198ec3caaee7857542fca4b26a5915510cb84da84a6a291b4cf1b9801210378d0f8d67207e8aec2b0276ccd8e84191ab3b33e4669bf9c944e164acb36e808fdffffff07ac00185e55cc1e3d112c07d1ebe301805e8e76044dc3944d0137f64208553f000000006b483045022100e5134a37ec31163f32142f48e9307d2d13b87dcbf601191a1cc5be6a216c3c4d02205c95999473f8626219dad4bc649f2c8465f8c4ec384f0674222f53cbe3d35c5801210378d0f8d67207e8aec2b0276ccd8e84191ab3b33e4669bf9c944e164acb36e808fdffffff02102700000000000017a9148b3442cc3e14997e2338dfd69a3ba2194e9cd7c087cc1f0000000000001976a914940c066308048089818b06b2d04bb36b2acb88e988ac00000000',
    scriptPubKeyHex: 'a9148b3442cc3e14997e2338dfd69a3ba2194e9cd7c087',
    address: '2N5wGX6qKBYe78LBfK8jRpsbvqnV7T6mpEP',
    spent: false,
    signer: 2
  },
  {
    txid: '4967a9214b92a6835b19d39f6e30720320b9200845b17853c0d39be8aecb1943',
    vout: 0,
    value: '0.0001',
    height: '2004276',
    confirmations: 756,
    satoshis: 10000,
    lockTime: undefined,
    coinbase: false,
    txHex: '0200000001c6336b84f710eebf22c960e19c381511700783c93856aec9de7d4b804dd832c0010000006a47304402204eafa1b50d7882ff3343bd0fe5c596bccdfacf953822c48347814a4ff3493295022019640888cef9abef861fdce533e23e478e979905ab3a692e71d5c6a10e0e148101210378d0f8d67207e8aec2b0276ccd8e84191ab3b33e4669bf9c944e164acb36e808fdffffff021027000000000000160014130aa978a5d019eb2d495c3d0b000915206f60dac1f60100000000001976a914940c066308048089818b06b2d04bb36b2acb88e988ac00000000',
    scriptPubKeyHex: '0014130aa978a5d019eb2d495c3d0b000915206f60da',
    address: 'tb1qzv92j7996qv7kt2fts7skqqfz5sx7cx6n00248',
    spent: false,
    signer: 2
  }
]
