export const forcedUtxos = [
  {
    txid: 'c032d84d804b7ddec9ae5638c98307701115389ce160c922bfee10f7846b33c6',
    vout: 0,
    value: '0.0001',
    height: '2004276',
    confirmations: 756,
    satoshis: 10000,
    lockTime: undefined,
    coinbase: false,
    txHex: '020000000221ae8931388ee24aa51f12dd6be49a06977da90a05604a1d66db0bc3a8816470000000006a473044022063537a13030de94b4f53454ac48b26f456dc18cb58689d7916d79013dab4439602204674b9270433a284ac17a1a9e5ec49162c7c50ceea8b2386ba5d000e1c0c1ca901210378d0f8d67207e8aec2b0276ccd8e84191ab3b33e4669bf9c944e164acb36e808fdffffff76ba0e747b7ad8d37b41fb00e947d767be8ac4e4af8510090dbd81e0489e7eef000000006a473044022037a04078b584b9de709e5c749aef3b7f5c809e3656a2de1749d3298041d8504502203d7ce41ea81ea5bea8915a6e94d8f09f76e037a3cb01ee52f2c950e2cf50732201210378d0f8d67207e8aec2b0276ccd8e84191ab3b33e4669bf9c944e164acb36e808fdffffff0210270000000000001976a914fb4e9a7eef2dcb8b5fd00b6c31286eaa2247b03288ac2c220200000000001976a914940c066308048089818b06b2d04bb36b2acb88e988ac00000000',
    scriptPubKeyHex: '76a914fb4e9a7eef2dcb8b5fd00b6c31286eaa2247b03288ac',
    address: 'n4Rk4fqGfY9HqZ41K6KNo44eG3MXA4YPMg',
    spent: false,
    signer: 1
  },
  {
    txid: '8e523bafc53262f89306793ffe63d91b9dcf58d8ad44ab5e3a64dee9e6566a18',
    vout: 0,
    value: '0.0001',
    height: '2004276',
    confirmations: 756,
    satoshis: 10000,
    lockTime: undefined,
    coinbase: false,
    txHex: '020000000213c0af0f6b9bf029dd445ea8447a3ec652a1f08faeb1f70f50ba2b24e0393c66000000006a47304402207e050931d823359ec2066cfc3d89fa2168da7d2a3bac52b55fbc2bf0b207afcb022026458bb4ee317a1cba91a815f43722a15c089b74f7de1ba99bc6734a3570a30001210378d0f8d67207e8aec2b0276ccd8e84191ab3b33e4669bf9c944e164acb36e808fdffffff282b6e6b7c0e29dd7751df4e987049d66fbaed1aaad76538f36cdd21350a4942000000006a47304402203637249e6a1fa87b25c59d5c10d2325bbc7dd10bd1215d5f70f716269de85bdc02206f66b91382712f642f03e11e724e1b98395b44db37b9199e51ad6f47f7dec25601210378d0f8d67207e8aec2b0276ccd8e84191ab3b33e4669bf9c944e164acb36e808fdffffff02102700000000000017a91443b1c3d2b4079f77a08c603b472e822ed7bb6bf4875c7f0100000000001976a914940c066308048089818b06b2d04bb36b2acb88e988ac00000000',
    scriptPubKeyHex: 'a91443b1c3d2b4079f77a08c603b472e822ed7bb6bf487',
    address: '2MyRADTg8pPEReSLL6HGYVAAQwixJ278dki',
    spent: false,
    signer: 1
  },
  {
    txid: '258e25aa7eacd76877efd5c36bff431298b16c6550fe305d33023438a1c79770',
    vout: 0,
    value: '0.0001',
    height: '2004276',
    confirmations: 756,
    satoshis: 10000,
    lockTime: undefined,
    coinbase: false,
    txHex: '0200000001186a56e6e9de643a5eab44add858cf9d1bd963fe3f790693f86232c5af3b528e010000006a473044022043e6d7b439a3c35ceffe94f32196b71ed4897a4846516bd98be490d997c1b48c022043ee889d2bab27789bd410679ec2da3ba5c20446864ab28a523179545210eb8e01210378d0f8d67207e8aec2b0276ccd8e84191ab3b33e4669bf9c944e164acb36e808fdffffff021027000000000000160014fb4e9a7eef2dcb8b5fd00b6c31286eaa2247b032f1530100000000001976a914940c066308048089818b06b2d04bb36b2acb88e988ac00000000',
    scriptPubKeyHex: '0014fb4e9a7eef2dcb8b5fd00b6c31286eaa2247b032',
    address: 'tb1qld8f5lh09h9ckh7spdkrz2rw4g3y0vpj0s5dla',
    spent: false,
    signer: 1
  },
  {
    txid: '8c3433c0d9ab951a94adb2d25a31be5c8d5fd13868f568e7ca6b5923eba55496',
    vout: 0,
    value: '0.0001',
    height: '2004276',
    confirmations: 756,
    satoshis: 10000,
    lockTime: undefined,
    coinbase: false,
    txHex: '02000000010bc6e8f2aa9681961fe1c7d1733e0ee3326436838f81057a50bd63abb961549b060000006b483045022100de93823b255e6b11edbab417159adcbe4b3f195bfa7166b0a35a92dec39bf03d02202df5634242238427a1ab9e5105020b35a1bd2863a92011912f1dc6c8f062a1b701210378d0f8d67207e8aec2b0276ccd8e84191ab3b33e4669bf9c944e164acb36e808fdffffff0210270000000000001976a914130aa978a5d019eb2d495c3d0b000915206f60da88ac2c3c0100000000001976a914940c066308048089818b06b2d04bb36b2acb88e988ac00000000',
    scriptPubKeyHex: '76a914130aa978a5d019eb2d495c3d0b000915206f60da88ac',
    address: 'mhFduWNyuHrWYwPhyGZNnuDYtPVgCshGg6',
    spent: false,
    signer: 2
  },
  {
    txid: '42c113779bdf01ba6cd2866213bddbe74187a28f53abbf2a796b8f18523fb8fa',
    vout: 0,
    value: '0.0001',
    height: '2004276',
    confirmations: 756,
    satoshis: 10000,
    lockTime: undefined,
    coinbase: false,
    txHex: '0200000002ad3541e94427ce004b50a94acc8707a9073450a65d750572323445d466bb402a000000006b483045022100f48bf0c74dc36f540c1bb577f34f1b2cf61d0683cf203c3d591518d25e1a4da902206856b2836198ec3caaee7857542fca4b26a5915510cb84da84a6a291b4cf1b9801210378d0f8d67207e8aec2b0276ccd8e84191ab3b33e4669bf9c944e164acb36e808fdffffff07ac00185e55cc1e3d112c07d1ebe301805e8e76044dc3944d0137f64208553f000000006b483045022100e5134a37ec31163f32142f48e9307d2d13b87dcbf601191a1cc5be6a216c3c4d02205c95999473f8626219dad4bc649f2c8465f8c4ec384f0674222f53cbe3d35c5801210378d0f8d67207e8aec2b0276ccd8e84191ab3b33e4669bf9c944e164acb36e808fdffffff02102700000000000017a9148b3442cc3e14997e2338dfd69a3ba2194e9cd7c087cc1f0000000000001976a914940c066308048089818b06b2d04bb36b2acb88e988ac00000000',
    scriptPubKeyHex: 'a9148b3442cc3e14997e2338dfd69a3ba2194e9cd7c087',
    address: '2N5wGX6qKBYe78LBfK8jRpsbvqnV7T6mpEP',
    spent: false,
    signer: 2
  },
  {
    txid: '4967a9214b92a6835b19d39f6e30720320b9200845b17853c0d39be8aecb1943',
    vout: 0,
    value: '0.0001',
    height: '2004276',
    confirmations: 756,
    satoshis: 10000,
    lockTime: undefined,
    coinbase: false,
    txHex: '0200000001c6336b84f710eebf22c960e19c381511700783c93856aec9de7d4b804dd832c0010000006a47304402204eafa1b50d7882ff3343bd0fe5c596bccdfacf953822c48347814a4ff3493295022019640888cef9abef861fdce533e23e478e979905ab3a692e71d5c6a10e0e148101210378d0f8d67207e8aec2b0276ccd8e84191ab3b33e4669bf9c944e164acb36e808fdffffff021027000000000000160014130aa978a5d019eb2d495c3d0b000915206f60dac1f60100000000001976a914940c066308048089818b06b2d04bb36b2acb88e988ac00000000',
    scriptPubKeyHex: '0014130aa978a5d019eb2d495c3d0b000915206f60da',
    address: 'tb1qzv92j7996qv7kt2fts7skqqfz5sx7cx6n00248',
    spent: false,
    signer: 2
  },
].sort((a, b) => `${a.txid}${a.vout}` > `${b.txid}${b.vout}` && 1 || -1)

export const availableUtxos = [
  {
    txid: 'a0904c8884a1118f6d978a6a377595e16a38121d62639709d186f8aedeb4aeb3',
    vout: 0,
    value: '0.001',
    height: '2004279',
    confirmations: 762,
    satoshis: 100000,
    lockTime: undefined,
    coinbase: false,
    txHex: '02000000037097c7a1383402335d30fe50656cb1981243ff6bc3d5ef7768d7ac7eaa258e25010000006a4730440220056fa47acd763556f48caf515a6cdd71f96d7e6b0910d3c04a4dce7600d6527a022053c80d69af63d5f949e38ca1daac4d96d217a8ae151cbc295ffbded33547fae901210378d0f8d67207e8aec2b0276ccd8e84191ab3b33e4669bf9c944e164acb36e808fdffffff1864c29fcc4964a77830527b698f590c83401f20f87eb02ae8ccd40e6f251e61000000006b483045022100d958963124652241df56a9bca8859a5eeed2f4b4428da0c9d581946743496458022050067e6976de42ce0b6f8c4e55b7168454ae410dfe74059feccb7e75fb78972201210378d0f8d67207e8aec2b0276ccd8e84191ab3b33e4669bf9c944e164acb36e808fdffffffd42efbbe51c2ae826b69cde7dd6514a8700c4cff15f2cf251ae80628c7284980000000006a4730440220663ee12a04ecee3fb8cabdf22bf3e7bea6808378cbdf0df84b8d9723eecd76640220251c189d6a5ed12c9c9791dfa3480d5d53e33970faed5c27f3d2dd6ffb4e1a8801210378d0f8d67207e8aec2b0276ccd8e84191ab3b33e4669bf9c944e164acb36e808fdffffff02a0860100000000001976a914fb4e9a7eef2dcb8b5fd00b6c31286eaa2247b03288accf700100000000001976a914940c066308048089818b06b2d04bb36b2acb88e988ac00000000',
    scriptPubKeyHex: '76a914fb4e9a7eef2dcb8b5fd00b6c31286eaa2247b03288ac',
    address: 'n4Rk4fqGfY9HqZ41K6KNo44eG3MXA4YPMg',
    spent: false,
    signer: 1
  },
  {
    txid: '6c86fa2df7bf847438bdc2e66088079b4c4fe92e8f475a4275f2f11fbc77bc4b',
    vout: 0,
    value: '0.0009',
    height: '2004280',
    confirmations: 761,
    satoshis: 90000,
    lockTime: undefined,
    coinbase: false,
    txHex: '0200000003552b35cf0b5a6069ae335a502832569fd7538c5c66f1d928e051fba4a660da3f000000006a47304402206c6ff37e741534440735f64941ce55388dbe6d8154a0c44b4f33942bac61ef4502207bd9cc879d780c2951a3c8b3c7a3d89595a37ff4d02ecb4b7c03ad6499398e1501210378d0f8d67207e8aec2b0276ccd8e84191ab3b33e4669bf9c944e164acb36e808fdffffffdbbd2e639a43079a547ef13d64f6696508822a2a1ad24024e71b884cece4baaa000000006b483045022100ec9d62ee25182f639a68ed59cbfcd9b78c6afef9bd625f164a4b246f7e7aeaa10220392f90433a70f661446d5fa2a94b205e22a7b1bf2cb3d7b065306aba85e23d6501210378d0f8d67207e8aec2b0276ccd8e84191ab3b33e4669bf9c944e164acb36e808fdffffff128c27d5047cd9d3bfa8e5ce7c006f2ee4b22c546eac1e6ba9afeee496632cce000000006b4830450221009dd92c8c4eb9f2eeea83b12828041cfa1a5799529889a6eeb23f68c636ad2329022072db8071748cc7f5492a658d7ea1a76b8f8131b3097533f944764fc1a3319a4901210378d0f8d67207e8aec2b0276ccd8e84191ab3b33e4669bf9c944e164acb36e808fdffffff02905f0100000000001976a914130aa978a5d019eb2d495c3d0b000915206f60da88ac50f00000000000001976a914940c066308048089818b06b2d04bb36b2acb88e988ac00000000',
    scriptPubKeyHex: '76a914130aa978a5d019eb2d495c3d0b000915206f60da88ac',
    address: 'mhFduWNyuHrWYwPhyGZNnuDYtPVgCshGg6',
    spent: false,
    signer: 2
  }
].sort((a, b) => `${a.txid}${a.vout}` > `${b.txid}${b.vout}` && 1 || -1)


export const unsignedHash = 'c608872c3d0f0d9cdc7d1e0daecd84cba4dc67ebfa508f9df0a02d3decc75f62'

export const signedHex = '020000000001087097c7a1383402335d30fe50656cb1981243ff6bc3d5ef7768d7ac7eaa258e250000000000fdfffffffab83f52188f6b792abfab538fa28741e7dbbd136286d26cba01df9b7713c1420000000017160014130aa978a5d019eb2d495c3d0b000915206f60dafdffffff4319cbaee89bd3c05378b1450820b9200372306e9fd3195b83a6924b21a967490000000000fdffffff4bbc77bc1ff1f275425a478f2ee94f4c9b078860e6c2bd387484bff72dfa866c000000006a47304402200ef7571dbb70691d08b88c07fffe7f8e61dabb7cf93525978203536867ff74ac02202d025885d4f014ab83d4a1806fd9c35d4b0658f054816f2a4b39cc61a1738e8a012103a78d8141f9e5811bae986db1026ffaa869500b9320ca378942f90207c12b02b7fdffffff9654a5eb23596bcae768f56838d15f8d5cbe315ad2b2ad941a95abd9c033348c000000006b483045022100d495be148a4ddab7bda4abb99b6ad120cfd1f3eb7db33d60fa4340c3091e14770220342b56e0987f65b744251678d8df938851ddcb021312251b280609703e557e2d012103a78d8141f9e5811bae986db1026ffaa869500b9320ca378942f90207c12b02b7fdffffff186a56e6e9de643a5eab44add858cf9d1bd963fe3f790693f86232c5af3b528e0000000017160014fb4e9a7eef2dcb8b5fd00b6c31286eaa2247b032fdffffffb3aeb4deaef886d1099763621d12386ae19575376a8a976d8f11a184884c90a0000000006b483045022100d45c7a6387058b5fdfaf75517ef6097579e2d35f1f6f5562bf714a13376389b902202a40dbe6cb3a865ef1c8c144c06d1ed45791816f39c4033ccc8fb0d16384532c012103395f2c19477ae0542ff4cb5376ebf2cbc362b0e6e73975837c6e5ce719eeb119fdffffffc6336b84f710eebf22c960e19c381511700783c93856aec9de7d4b804dd832c0000000006b483045022100c51f4e0424044b95a853c848253b1815bb0edbbea96e0b55a663841d64bec057022040752b926d258dd1e2fe76ce9f896bb4ef959baa415724d3c67dae4ca5d74fa7012103395f2c19477ae0542ff4cb5376ebf2cbc362b0e6e73975837c6e5ce719eeb119fdffffff0350340300000000001976a9147d0639a02d68d78af9f843dd305365a73c5f7b2888ac6c2c0000000000001976a914a3d71eb6c11a9a5a3718e910d677a0417e470f0888ac84560000000000001976a9143ec26c2e7737f08a3e21673fa57ac834d370264788ac0248304502210093a99e830267988e93fa7026c84fda80cb7231c299ff8467c16e86bf78db2c2302201d9bbc56ed7398d46cfb1a37ec3c2b7cbc538dc903c6a9b4d89af9683af7b335012103395f2c19477ae0542ff4cb5376ebf2cbc362b0e6e73975837c6e5ce719eeb11902483045022100d9b0e36ac22acbbb6af2419607747d876ba53aa31b15c47657d487a72997b93102201c9cd2fc1838b42f9b50912786e962b9a4d37aa2f965fbbe57e22f9f8738702e012103a78d8141f9e5811bae986db1026ffaa869500b9320ca378942f90207c12b02b702473044022001e403c7e87dd7cd146c94e6725999984e7c5a386049e19fe26d40fe37a92985022072516561182ed5bf60de207288c58cdc84968ba2e642c21740edcc520f6f27c2012103a78d8141f9e5811bae986db1026ffaa869500b9320ca378942f90207c12b02b700000247304402202d33eae5f27a3ff9b39b55ea297c993b17fe1b1f9159d407bbf72f5c6b359e4202201dd99ae027220ee570a4479cf7fd212e33b6d2a5c8cb5aa9aac3c4a84b006ad0012103395f2c19477ae0542ff4cb5376ebf2cbc362b0e6e73975837c6e5ce719eeb119000000000000'

export const mitxId = 'f75b5c41d11210704c57bc13cce5d7e66339730a0493553bccebd205edb1de25'
